:020000040000FA
:0600000000F03EEF00F0ED
:10000800FFFF0D829DAA0BEF00F00EEF00F0FFFF3F
:1000180039EF00F0FFFF9EAA14EF00F017EF00F091
:10002800FFFF39EF00F0FFFFABA21DEF00F020EF5C
:1000380000F0FFFF27EF00F0FFFFAB98AB88AE5052
:10004800AE5037EF00F0FFFFABA42DEF00F030EF1C
:1000580000F0FFFF34EF00F0FFFFAE5037EF00F085
:10006800FFFF010E0C6EFFFF9E9AFFFF0D9211001D
:10007800FFFFFFFF54EF01F0FFFF48EC01F027EC12
:1000880001F0D6EC00F0F28E000E086E000E096E3C
:10009800000E0A6EFFFF0C50D8B455EF00F058EF71
:1000A80000F0FFFF5FEF00F0FFFFAECF0BF0000E98
:1000B8000C6EAAEF00F0FFFF81B065EF00F068EF6B
:1000C80000F0FFFF78EF00F0FFFF0804D8A46FEFFF
:1000D80000F072EF00F0FFFF78EF00F0FFFF300E46
:1000E80038EC01F0AAEF00F0FFFF81B27EEF00F0DC
:1000F80081EF00F0FFFF91EF00F0FFFF0904D8A4A3
:1001080088EF00F08BEF00F0FFFF91EF00F0FFFFAA
:10011800400E38EC01F0AAEF00F0FFFF81B497EF32
:1001280000F09AEF00F0FFFFAAEF00F0FFFF0A04CB
:10013800D8A4A1EF00F0A4EF00F0FFFFAAEF00F0B1
:10014800FFFF410E38EC01F0AAEF00F0FFFF81B08D
:10015800B0EF00F0B4EF00F0FFFF010EB6EF00F0D3
:10016800FFFF000EFFFF086E81B2BDEF00F0C1EF88
:1001780000F0FFFF010EC3EF00F0FFFF000EFFFFCE
:10018800096E81B4CAEF00F0CEEF00F0FFFF010E58
:10019800D0EF00F0FFFF000EFFFF0A6E4EEF00F0F9
:1001A8003EEF00F0FFFF000E066E000E056E070E14
:1001B800046ED00E036EF00E38EC01F0F29EF3EFF1
:1001C80000F0FFFF140E026E7D0EFFFFE82EFDD734
:1001D800022EFBD700D0140E0526000E0622FFFFC4
:1001E8000350055C04500658D8B0FDEF00F000EF4E
:1001F80001F0FFFF09EF01F0FFFF9EAA06EF01F0F3
:1002080009EF01F0FFFFE5EF00F0FFFF9EAA0FEFF7
:1002180001F012EF01F0FFFF24EF01F0FFFFAECF76
:1002280007F0A50E0718D8A41CEF01F01FEF01F086
:10023800FFFF22EF01F0FFFF24EF01F0FFFFF28E36
:10024800FFFF1200FFFFFFFF190EAF6EAC84AC98E2
:10025800AC9CAC8AAB88AB9CAB8E949C948E9E9ADB
:100268009D8AF28C1200FFFFFFFF016E01C0ADFFF7
:10027800FFFFACA242EF01F045EF01F0FFFF3CEFBA
:1002880001F0FFFF1200FFFFFFFF000E8A6E000E55
:10029800816E9368000E8B6E000E826E1200FFFF57
:1002A8000C6A0B6A0D900D92000140EF00F0FFFF01
:020000040020DA
:08000000FFFFFFFFFFFFFFFF00
:020000040030CA
:0E000000FF210D0EFF0080FF0FC00FE00F402C
:00000001FF
